:0400000077EF10F096
:100800000102040810204080000020EE23F03A503E
:10081000D9263B50DA22DF50D8A401D001D002D033
:1008200005D204D2BCEC10F001C04EF002C04FF073
:1008300003C050F004C051F020EE1FF03A50D9260A
:100840003B50DA22DECF3CF0DECF3DF0DECF3EF093
:10085000DECF3FF020EE1BF03A50D9263B50DA2293
:10086000DECF40F0DECF41F0DECF42F0DECF43F00E
:10087000401E411E421E431E402A000E41224222BB
:1008800043224E504024446E4F504120456E5050FC
:100890004220466E51504320476E3C50445C3D50D0
:1008A00045583E5046583F504758D8A001D001D037
:1008B000BDD13AC0D9FF3BC0DAFFDECF3CF0DDCF7F
:1008C0003DF03CC0D9FF3DC0DAFFDECF55F0DECFB2
:1008D00056F0DDCF57F055C009F056C00AF057C0AA
:1008E0000BF0A7EC10F009C027F00AC028F00BC0ED
:1008F00029F020EE04F03A50D9263B50DA22DECF20
:100900003CF0DDCF3DF03CC0D9FF3DC0DAFFDECF8B
:100910002AF0DECF2BF0DDCF2CF03AEC07F027C029
:1009200052F028C053F029C054F0150E3A24356E09
:10093000000E3B20366E52C019F053C01AF054C05E
:100940001BF020EE09F03A50D9263B50DA22DECFD8
:1009500016F0DECF17F0DDCF18F067EC0BF016C005
:1009600037F017C038F018C039F058EC10F020EE0E
:1009700012F03A50D9263B50DA22DECF01F0DECF1A
:1009800002F0DDCF03F020EE15F03A50D9263B50AF
:10099000DA22DECF04F0DECF05F0DDCF06F01BEC6F
:1009A0000FF0D8B001D001D014D020EE12F03A50A0
:1009B000D9263B50DA2210EE15F03A50E1263B5092
:1009C000E222DECFE6FFDECFE6FFDECFE5FFE55237
:1009D00033D020EE15F03A50D9263B50DA22DECF44
:1009E00001F0DECF02F0DDCF03F020EE0FF03A5041
:1009F000D9263B50DA22DECF04F0DECF05F0DDCF82
:100A000006F01BEC0FF0D8B001D001D015D020EECD
:100A10000FF03A50D9263B50DA2210EE15F03A503A
:100A2000E1263B50E222DECFE6FFDECFE6FFDECF5F
:100A3000E5FFE55201D000D020EE18F03A50D9265B
:100A40003B50DA22DECF09F0DECF0AF0DDCF0BF02B
:100A5000A7EC10F009C027F00AC028F00BC029F05D
:100A600055C02AF056C02BF057C02CF03AEC07F0D6
:100A700027C048F028C049F029C04AF048C019F002
:100A800049C01AF04AC01BF020EE0CF03A50D926AB
:100A90003B50DA22DECF16F0DECF17F0DDCF18F0B4
:100AA00067EC0BF016C009F017C00AF018C00BF085
:100AB000A7EC10F009C02AF00AC02BF00BC02CF0F4
:100AC00052C019F053C01AF054C01BF020EE06F0CB
:100AD0003A50D9263B50DA22DECF16F0DECF17F09F
:100AE000DDCF18F067EC0BF016C027F017C028F028
:100AF00018C029F03AEC07F027C04BF028C04CF0A2
:100B000029C04DF04BC027F04CC028F04DC029F053
:100B100020EE15F03A50D9263B50DA22DECF2AF0EB
:100B2000DECF2BF0DDCF2CF03AEC07F027C058F0E9
:100B300028C059F029C05AF020EE12F03A50D926B8
:100B40003B50DA22DECF01F0DECF02F0DDCF03F042
:100B500058C004F059C005F05AC006F01BEC0FF065
:100B6000D8B001D001D00DD020EE12F03A50D926E5
:100B70003B50DA22DECF58F0DECF59F0DDCF5AF00D
:100B800025D058C001F059C002F05AC003F020EE41
:100B90000FF03A50D9263B50DA22DECF04F0DECFF8
:100BA00005F0DDCF06F01BEC0FF0D8B001D001D07E
:100BB0000DD020EE0FF03A50D9263B50DA22DECF8E
:100BC00058F0DECF59F0DDCF5AF000D020EE02F021
:100BD0003A50D9263B50DA22DECF3CF0DDCF3DF053
:100BE0003CC0D9FF3DC0DAFF58C0DEFF59C0DEFF70
:100BF0005AC0DDFF20EE18F03A50D9263B50DA22D9
:100C000055C0DEFF56C0DEFF57C0DDFF20EE1BF0F3
:100C10003A50D9263B50DA224EC0DEFF4FC0DEFFED
:100C200050C0DEFF51C0DEFF01D000D012000CC06A
:100C300001F00DC002F00EC003F00FC004F010C0B0
:100C400005F011C006F01BEC0FF0D8A001D001D0C8
:100C500002D00FD10ED120EE0FF00A50D9260B5042
:100C6000DA220CC0DEFF0DC0DEFF0EC0DDFF20EE7D
:100C700012F00A50D9260B50DA220FC0DEFF10C046
:100C8000DEFF11C0DDFF20EE23F00A50D9260B5005
:100C9000DA22DF50D8B401D001D0EBD020EE12F030
:100CA0000A50D9260B50DA22DECF01F0DECF02F057
:100CB000DDCF03F020EE02F00A50D9260B50DA22E5
:100CC000DECF12F0DDCF13F012C0D9FF13C0DAFF70
:100CD000DECF04F0DECF05F0DDCF06F01BEC0FF029
:100CE000D8B001D001D01CD020EE12F00A50D92685
:100CF0000B50DA2210EE02F00A50E1260B50E222ED
:100D0000E6CF12F0E5CF13F012C0E1FF13C0E2FF0F
:100D1000DECFE6FFDECFE6FFDECFE5FFE55243D0D4
:100D200020EE02F00A50D9260B50DA22DECF12F064
:100D3000DDCF13F012C0D9FF13C0DAFFDECF01F010
:100D4000DECF02F0DDCF03F020EE0FF00A50D926FF
:100D50000B50DA22DECF04F0DECF05F0DDCF06F057
:100D60001BEC0FF0D8B001D001D01DD020EE0FF059
:100D70000A50D9260B50DA2210EE02F00A50E12672
:100D80000B50E222E6CF12F0E5CF13F012C0E1FFE4
:100D900013C0E2FFDECFE6FFDECFE6FFDECFE5FFEA
:100DA000E55201D000D020EE12F00A50D9260B50A7
:100DB000DA22DECF01F0DECF02F0DDCF03F020EE4D
:100DC00015F00A50D9260B50DA22DECF04F0DECF20
:100DD00005F0DDCF06F01BEC0FF0D8B001D001D04C
:100DE00014D020EE12F00A50D9260B50DA2210EE61
:100DF00015F00A50E1260B50E222DECFE6FFDECFEF
:100E0000E6FFDECFE5FFE55234D020EE15F00A50C4
:100E1000D9260B50DA22DECF01F0DECF02F0DDCF93
:100E200003F020EE0FF00A50D9260B50DA22DECF65
:100E300004F0DECF05F0DDCF06F01BEC0FF0D8B0EC
:100E400001D001D016D020EE0FF00A50D9260B5059
:100E5000DA2210EE15F00A50E1260B50E222DECF26
:100E6000E6FFDECFE6FFDECFE5FFE55202D001D0A0
:100E700000D012000F0E2D6E27C02EF028C02FF0CC
:100E800029C030F02D28316E04D0D89030322F3266
:100E90002E32312EFAD72E50346E0F0E2D6E2AC000
:100EA0002EF02BC02FF02CC030F02D28316E04D046
:100EB000D89030322F322E32312EFAD72E50336E58
:100EC0003450D8B401D001D00FD03350346001D0A9
:100ED00001D011D03450000833242D6E190E2D5C32
:100EE000D8A001D001D007D02AC027F02BC028F00D
:100EF0002CC029F0DBD03350D8B401D001D00FD0B2
:100F00003450336001D001D011D033500008342464
:100F10002D6E190E2D5CD8A001D001D007D027C0AE
:100F200027F028C028F029C029F0C0D02D6E060E69
:100F3000326E2D5029AE01D001D002D0328E00D0B9
:100F40002CAE01D001D001D0328C288EFF0E271696
:100F5000FF0E2816000E29162B8EFF0E2A16FF0EE6
:100F60002B16000E2C163350346001D001D023D044
:100F700000D0D8902A362B362C363306335034180E
:100F8000D8B401D001D010D032063250070BD8A40B
:100F900001D001D0EED708D007D006D0D8902932A2
:100FA00028322732342A00D03350346201D001D0A5
:100FB000F5D729D028D03450336001D001D023D0C8
:100FC00000D0D890273628362936340633503418C6
:100FD000D8B401D001D010D032063250070BD8A4BB
:100FE00001D001D0EED708D007D006D0D8902C324F
:100FF0002B322A32332A00D03350346201D001D050
:10100000F5D701D000D032AE01D001D00CD0FF0E08
:10101000271AFF0E281AFF0E291A010E2726000E86
:101020002822000E292232AC01D001D00DD0FF0EB3
:101030002A1AFF0E2B1AFF0E2C1A010E2A26000E5A
:101040002B22000E2C2200D02D6E000E326E2D5061
:1010500027502A2628502B2229502C222CAE01D092
:1010600001D011D0FF0E2A1AFF0E2B1AFF0E2C1AD8
:10107000010E2A26000E2B22000E2C222D6E010EB0
:10108000326E2D5000D02AC001F02BC002F02CC0CF
:1010900003F034C004F032C005F02CEC0DF001C0B8
:1010A00027F002C028F003C029F000D012002B5016
:1010B000800A800F05E1000E2A5C02E1000E295C27
:1010C000D8A001D001D0DFD02E50800A800F05E1DA
:1010D000000E2D5C02E1000E2C5CD8A001D001D0E6
:1010E000D2D03150800A800F05E1000E305C02E161
:1010F000000E2F5CD8B001D001D002D0C4D0C3D034
:1011000020EE1FF02750D9262850DA22DECF09F032
:10111000DECF0AF0DECF0BF0DECF0CF06DEC0FF07F
:1011200009C012F00AC013F00BC014F01B0E156EAC
:10113000370E166E470E176E9DEC0CF012C032F093
:1011400013C033F014C034F020EE06F02750D92637
:101150002850DA2229C0DEFF2AC0DEFF2BC0DDFFC7
:101160002CC016F02DC017F02EC018F032C019F0A8
:1011700033C01AF034C01BF067EC0BF020EE09F01E
:101180002750D9262850DA2216C0DEFF17C0DEFF0E
:1011900018C0DDFFDD522FC012F030C013F031C097
:1011A00014F032C015F033C016F034C017F09DECC7
:1011B0000CF020EE0CF02750D9262850DA2212C06D
:1011C000DEFF13C0DEFF14C0DDFFDD5220EE24F091
:1011D0002750D9262850DA22010EDF6201D001D033
:1011E00052D020EE06F02750D9262850DA22DECF42
:1011F00009F0DECF0AF0DDCF0BF0A7EC10F020EE07
:1012000006F02750D9262850DA2209C0DEFF0AC08E
:10121000DEFF0BC0DDFFDD5220EE09F02750D9269E
:101220002850DA22DECF09F0DECF0AF0DDCF0BF056
:10123000A7EC10F020EE09F02750D9262850DA222A
:1012400009C0DEFF0AC0DEFF0BC0DDFFDD5220EE6D
:101250000CF02750D9262850DA22DECF09F0DECF55
:101260000AF0DDCF0BF0A7EC10F020EE0CF02750C9
:10127000D9262850DA2209C0DEFF0AC0DEFF0BC0E3
:10128000DDFFDD5200D012000001AF6F010E0F6EC6
:101290000001AF51F0EC0FF000010001B76FB7C0D3
:1012A00001F0110E026E000E036E000E046E000EB1
:1012B000056E070E066E000E076E000E086E000E1D
:1012C000096E06EC0CF0B7C011F00001AF6F010E13
:1012D000126E0001AF51A4EC0FF011C09CF012C0CF
:1012E0009DF00001000E366E0001710E356E00019A
:1012F000000E386E0001960E376E0001000E3A6E39
:101300000001990E396E0001000E3C6E0001AC0E1A
:101310003B6E000E3D6EA00E3E6E400E3F6E000E08
:10132000406E800E416E3F0E426E000E436E400EC8
:10133000446E400E456EC4EC0AF035C06EF036C007
:101340006FF06EC00AF06FC00BF0000E0C6E000E56
:101350000D6E000E0E6E000E0F6E7F0E106E430EA1
:10136000116E17EC06F06EC00AF06FC00BF016ECB1
:101370000AF000D0000166C0AFF0000167C0B0F015
:10138000000168C0B1F0000169C0B2F00001AF1FF8
:10139000B01FB11FB21FAF2B000EB023B123B22379
:1013A000BCEC10F00001AF5101240001B36F00014B
:1013B000B05102200001B46F0001B15103200001BF
:1013C000B56F0001B25104200001B66F1B0E000181
:1013D000B35DB70EB459000EB559000E0001B659F1
:1013E000D8A001D001D0C6D7BCEC10F001C066F087
:1013F00002C067F003C068F004C069F00001000E8D
:101400002E6E00019C0E2D6E36EC10F02DC096F065
:101410002EC097F02FC098F06EC03AF06FC03BF02E
:1014200005EC04F0A7D7A6D700EF00F020EE23F0DC
:101430000A50D9260B50DA22DF50D8A401D001D0AF
:10144000A2D020EE02F00A50D9260B50DA22DECFCD
:101450000CF0DDCF0DF00CC0D9FF0DC0DAFF10EE9F
:1014600018F00A50E1260B50E222DECFE6FFDECF75
:10147000E6FFDECFE5FFE5520AC0D9FF0BC0DAFF79
:10148000DECF0CF0DDCF0DF00CC0D9FF0DC0DAFFC0
:1014900010EE18F00A50E1260B50E222DECFE6FFF4
:1014A000DECFE6FFDECFE5FFE55220EE12F00A5078
:1014B000D9260B50DA22DECF01F0DECF02F0DDCFED
:1014C00003F020EE15F00A50D9260B50DA22DECFB9
:1014D00004F0DECF05F0DDCF06F01BEC0FF0D8B046
:1014E00001D001D014D020EE12F00A50D9260B50B2
:1014F000DA2210EE15F00A50E1260B50E222DECF80
:10150000E6FFDECFE6FFDECFE5FFE55233D020EE8B
:1015100015F00A50D9260B50DA22DECF01F0DECFCB
:1015200002F0DDCF03F020EE0FF00A50D9260B5069
:10153000DA22DECF04F0DECF05F0DDCF06F01BECC3
:101540000FF0D8B001D001D015D020EE0FF00A5026
:10155000D9260B50DA2210EE15F00A50E1260B5076
:10156000E222DECFE6FFDECFE6FFDECFE5FFE5528B
:1015700001D000D020EE23F00A50D9260B50DA22F9
:10158000010EDF6E00D0120035C0D9FF36C0DAFF81
:1015900037C0DEFF38C0DDFF20EE02F03550D9261F
:1015A0003650DA2239C0DEFF3AC0DDFF20EE04F00B
:1015B0003550D9263650DA223BC0DEFF3CC0DDFF75
:1015C00020EE23F03550D9263650DA22000EDF6E99
:1015D00035C00AF036C00BF0000E0C6E000E0D6E1A
:1015E000000E0E6E000E0F6E7F0E106E430E116E0B
:1015F00017EC06F020EE1FF03550D9263650DA22CF
:10160000F80EDE6E110EDE6E000EDE6E000EDD6E6A
:10161000DD52DD5235C00CF036C00DF0466E000EC6
:101620000E6E4650A3EC0DF035C027F036C028F002
:101630003DC029F03EC02AF03FC02BF040C02CF046
:1016400041C02DF042C02EF043C02FF044C030F016
:1016500045C031F057EC08F020EE1FF03550D92688
:101660003650DA22DECF46F0DECF47F0DECF48F04C
:10167000DECF49F0461E471E481E491E462A000E70
:10168000472248224922BCEC10F0465001244A6E01
:10169000475002204B6E485003204C6E49500420A6
:1016A0004D6E20EE1BF03550D9263650DA224AC056
:1016B000DEFF4BC0DEFF4CC0DEFF4DC0DDFFD906B4
:1016C000D90635C035F036C036F000D012000F0E06
:1016D0001C6E16C01DF017C01EF018C01FF01C288D
:1016E000206E04D0D8901F321E321D32202EFAD721
:1016F0001D50216E216601D001D008D0000E166E5B
:10170000000E176E000E186E80D07FD00F0E1C6E6C
:1017100019C01DF01AC01EF01BC01FF01C28206E3F
:1017200004D0D8901F321E321D32202EFAD71D5001
:10173000266E266601D001D008D0000E166E000E6F
:10174000176E000E186E61D060D026507B0F2126D8
:1017500018C026F01B50261A800E2616178E1A8ED9
:10176000FF0E1916FF0E1A16000E1B16000E226E23
:10177000000E236E000E246E1C6E070E256E1C508C
:1017800000D016A001D001D007D0195022261A503F
:1017900023221B50242200D0D89018321732163240
:1017A000D89019361A361B36252EEBD700D01C6E72
:1017B000090E256E1C5000D016A001D001D007D014
:1017C000195022261A5023221B50242200D0D890D0
:1017D000183217321632D890243223322232252E74
:1017E000EBD700D022C001F023C002F024C003F0E8
:1017F00021C004F026C005F02CEC0DF001C016F05D
:1018000002C017F003C018F000D012000104D8B4D1
:1018100001D001D002D090D08FD006500F0B0E6EA9
:1018200030D00E50030AD8A401D001D005D0C69004
:10183000C692C694C69657D00E50050AD8A401D0B9
:1018400001D005D0C650F00B0109C66E4CD00E5029
:10185000070AD8A401D001D005D0C650F00B020968
:10186000C66E41D0C650F00B0209C66E3CD03BD0CC
:101870003AD039D0C650F00B0409C66E34D05CD0D3
:1018800032D00F0E02140A6E000E03140B6E000EFF
:1018900004140C6E000E05140D6E0D50000AD8B421
:1018A0000ED04AD00B50000AD8B401D045D00A500F
:1018B000010AD8B4B6D7030AD8B4DCD73DD00C504F
:1018C000000AD8B4EFD738D00ED0C698C79C34D011
:1018D000C698C78C31D0C688C79C2ED0C688C78C06
:1018E0002BD02AD029D0F00E02140A6E000E031459
:1018F0000B6E000E04140C6E000E05140D6E0D50D0
:10190000000AD8B414D018D00B50000AD8B401D0B3
:1019100013D00A50100AD8B4D8D7300AD8B4D8D7C0
:10192000100AD8B4D8D7700AD8B4D8D705D00C507C
:10193000000AD8B4E9D700D012000F0E186E12C0FA
:1019400019F013C01AF014C01BF018281C6E04D034
:10195000D8901B321A3219321C2EFAD71950216E28
:10196000216601D001D008D0000E126E000E136E59
:10197000000E146E70D06FD00F0E186E15C019F0D7
:1019800016C01AF017C01BF018281C6E04D0D8908F
:101990001B321A3219321C2EFAD71950226E2266C7
:1019A00001D001D008D0000E126E000E136E000E92
:1019B000146E51D050D0000E1E6E000E1F6E000E21
:1019C000206E2250890F215E14C022F01750221A77
:1019D000800E2216138EFF0E1216FF0E1316000E27
:1019E0001416168EFF0E1516FF0E1616000E17167D
:1019F000186E180E1D6E1850D8901E361F362036E1
:101A00001550125C1650135817501458D8A001D016
:101A100001D007D01550125E1650135A1750145AA1
:101A20001E80D8901236133614361D2EE5D700D0FE
:101A30001EC001F01FC002F020C003F021C004F05E
:101A400022C005F02CEC0DF001C012F002C013F022
:101A500003C014F000D012000450D8B401D001D05B
:101A600008D0015002100310D8A401D001D010D02A
:101A700000D0000E016E000E026E000E036E62D0EA
:101A800061D006D0042AD89003320232013200D04D
:101A9000000E0114066E000E0214076EFE0E0314F3
:101AA000086E065007100810D8A401D001D0EAD75C
:101AB0000DD00CD0042A010E0126000E0222000EC9
:101AC0000322D89003320232013200D0000E0114FA
:101AD000066E000E0214076EFF0E0314086E065009
:101AE00007100810D8A401D001D0E4D707D006D041
:101AF0000406D89001360236033600D002AE01D07B
:101B000001D0F6D704B001D001D002D0029E00D09F
:101B1000D89004320450086E076A066A0650011213
:101B200007500212085003120550D8B401D001D05A
:101B300002D0038E00D001C001F002C002F003C049
:101B400003F000D0120020EE23F00C50D9260D50E7
:101B5000DA22DF50D8B401D001D05ED020EE24F0DC
:101B60000C50D9260D50DA22DF500E18D8B401D00F
:101B700001D052D020EE06F00C50D9260D50DA22BA
:101B8000DECF09F0DECF0AF0DDCF0BF0A7EC10F0CE
:101B900020EE06F00C50D9260D50DA2209C0DEFFE7
:101BA0000AC0DEFF0BC0DDFFDD5220EE09F00C5055
:101BB000D9260D50DA22DECF09F0DECF0AF0DDCFD4
:101BC0000BF0A7EC10F020EE09F00C50D9260D50C8
:101BD000DA2209C0DEFF0AC0DEFF0BC0DDFFDD52E6
:101BE00020EE0CF00C50D9260D50DA22DECF09F091
:101BF000DECF0AF0DDCF0BF0A7EC10F020EE0CF0FA
:101C00000C50D9260D50DA2209C0DEFF0AC0DEFFD3
:101C10000BC0DDFFDD5200D020EE24F00C50D926A1
:101C20000D50DA220EC0DFFF1200056E000E076EA7
:101C3000055004AE01D001D009D0036C041ED8B009
:101C4000042A056E010E076E055000D002AE01D0C9
:101C500001D007D0016C021ED8B0022A010E071A6B
:101C600000D0000E096E000E086E04500310D8B4A8
:101C700001D001D028D0056E010E066E055005D0AA
:101C8000D89003360436062A00D004AE01D001D025
:101C9000F7D701D000D0D890083609360350015C40
:101CA00004500258D8A001D001D006D00350015EE4
:101CB0000450025A088000D0D89004320332062E15
:101CC000EAD701D000D00750D8B401D001D005D058
:101CD000086C091ED8B0092A00D008C001F009C05C
:101CE00002F000D01200000E2C6E000E2B6E20EEC3
:101CF00001F02750D9262850DA22DF500A6E296ECB
:101D0000000E0B6E2950C7EC0EF027C0D9FF28C07B
:101D1000DAFFDF50026E000E046E2B0E036E000E13
:101D2000066E020E056E13EC10F020EE01F0275047
:101D3000D9262850DA22DF500A6E296E010E0B6E6A
:101D40002950C7EC0EF02BA401D001D003D0276896
:101D500028681CD0F80E2B167F0E2C16D8902C322B
:101D60002B32D8902C322B32D8902C322B322BC0E5
:101D700029F02CC02AF0D8902A322932D8902A3261
:101D8000293229C027F02AC028F000D012000AC04A
:101D900001F0026A000E046E080E036E15EC0EF0E0
:101DA00001500F6E0A50070B106E0F50020D00010C
:101DB0009E0EF324D96E0001000EF420DA6EDECF01
:101DC0000CF0DDCF0DF00CC0D9FF0DC0DAFFDF50F5
:101DD0000E6E0B6601D001D00DD01050010D000E1B
:101DE000F324F66E080EF420F76E0800F550FF0A93
:101DF0000E160CD01050010D000EF324F66E080ED6
:101E0000F420F76E0800F5500E1200D00F50020DAE
:101E100000019E0EF324D96E0001000EF420DA6E4C
:101E2000DECF0CF0DDCF0DF00CC0D9FF0DC0DAFF16
:101E30000EC0DFFF120003AE01D001D017D001C0E9
:101E400007F002C008F003C009F0071E081E091EB3
:101E5000072A000E08220922000E0724016E000E38
:101E60000820026E800E0920036E00D006AE01D05D
:101E700001D017D004C007F005C008F006C009F073
:101E8000071E081E091E072A000E08220922000E3E
:101E90000724046E000E0820056E800E0920066ED1
:101EA00000D0000E011A000E021A800E031A000E56
:101EB000041A000E051A800E061A0450015C055023
:101EC000025806500358D8B001D001D002D0D890A3
:101ED00003D0D88001D000D012000D6E8E0E116E8E
:101EE0000D5007D0D8900C320B320A320932112A29
:101EF00000D0000E09140D6E000E0A140E6E000EB6
:101F00000B140F6EFF0E0C14106E10500D100E10EF
:101F10000F10D8A401D001D0E5D700D009C001F03E
:101F20000AC002F00BC003F011C004F00D6E000EE9
:101F3000056E0D502CEC0DF001C009F002C00AF046
:101F400003C00BF000D0120012C00AF0136E010E95
:101F50000B6E1350C7EC0EF011C001F0210E026E93
:101F6000000E036E000E046E000E056E040E066E6B
:101F7000000E076E000E086E000E096E06EC0CF0E7
:101F800011C014F012C015F014C011F015C012F0F9
:101F900000D01200146E000E156E145012AE01D057
:101FA00001D009D0116C121ED8B0122A146E010E85
:101FB000156E145000D011C001F012C002F0036A77
:101FC000146E8E0E046E145015C005F02CEC0DF03E
:101FD00001C011F002C012F003C013F000D01200D3
:101FE0000F04D8B401D001D003D0000E1BD01AD0FA
:101FF000000EC76E000EC66E0FC001F0110E026E0D
:10200000000E036E000E046E000E056E030E066ECB
:10201000000E076E000E086E000E096E06EC0CF046
:102020000F5000D012001AD0AA0EC96E01D000D0F5
:1020300002C001F0D1EC10F00009D8B401D001D0F9
:10204000F7D700D003C0D9FF04C0DAFFC9CFDFFF44
:10205000034A042A0506D8A0060600D0065005103B
:10206000D8A401D001D0E0D700D012002DC027F0B5
:102070002EC028F073EC0EF027C011F028C012F02B
:10208000CAEC0FF011C016F012C017F013C018F010
:10209000000E196E800E1A6E3E0E1B6E67EC0BF072
:1020A00016C02DF017C02EF018C02FF000D012006F
:1020B00035C0D9FF36C0DAFFDECF27F0DECF28F0FB
:1020C000DDCF29F037C02AF038C02BF039C02CF012
:1020D0003AEC07F035C0D9FF36C0DAFF27C0DEFF83
:1020E00028C0DEFF29C0DDFFDD5200D0120000EE67
:1020F00060F03E0EEE6AE806FDE1900EF66E210EEF
:10210000F76E000EF86E00EE9EF010EE11F0090072
:10211000F5CFEEFFE550E150FAE1000EF86E000158
:1021200044EF09F0F28A00F0F29AD6CF60F0D7CFF0
:1021300061F06AC062F06BC063F06CC064F06DC0A7
:1021400065F0F2B401D001D0EDD7F28A12007F0E13
:102150000B140A100910D8B401D001D006D0000E1B
:10216000091A000E0A1A800E0B1A09C009F00AC0DB
:102170000AF00BC00BF0120092EC10F060C001F0FE
:1021800061C002F062C003F063C004F000D012002E
:10219000800F810F820F840F920F930F940F00C84E
:1021A0004200C7B001D002D0010E01D0000E00D015
:0221B00012001B
:020000040020DA
:08000000FFFFFFFFFFFFFFFF00
:020000040030CA
:0E00000000051F1FFF8385FF0FC00FE00F409C
:00000001FF
